:020000040000FA
:100000000C9453000C947B000C947B000C947B00AC
:100010000C947B000C947B000C947B000C947B0074
:100020000C947B000C947B000C947B000C947B0064
:100030000C947B000C947B000C947B000C947B0054
:100040000C9406020C947B000C9476020C945002E3
:100050000C947B000C947B000C947B000C947B0034
:100060000C947B000C947B0000000000250028000D
:100070002B0000000000240027002A0004040404D0
:100080000404040402020202020203030303030342
:10009000010204081020408001020408102001021F
:1000A00004081020B80311241FBECFEFD8E0DEBF34
:1000B000CDBF11E0A0E0B1E0EAEDF7E002C00590AD
:1000C0000D92AA37B107D9F722E0AAE7B1E001C043
:1000D0001D92A032B207E1F710E0C3E5D0E004C002
:1000E0002197FE010E94E503C235D107C9F70E949E
:1000F000A8020C94EB030C940000CF93DF9390E0E4
:10010000FC01E057FF4F249184589F4FFC018491DC
:100110008823C1F090E0880F991FFC01EE58FF4F33
:10012000C591D491FC01E859FF4FA591B4919FB7B7
:10013000F8948881E22FE0958E2388838C91E823C0
:10014000EC939FBFDF91CF9108958E508064809390
:100150007C0080917A00806480937A0080917A009C
:1001600086FDFCCF809178009091790008953FB78B
:10017000F89480917F0190918001A0918101B091CC
:10018000820126B5A89B05C02F3F19F00196A11D3D
:10019000B11D3FBFBA2FA92F982F8827BC01CD01D1
:1001A000620F711D811D911D42E0660F771F881F30
:1001B000991F4A95D1F70895AF92BF92CF92DF92DF
:1001C000EF92FF920F931F93CF93DF936C017B010C
:1001D0008B01040F151FEB015E01AE18BF08C0179D
:1001E000D10759F06991D601ED91FC910190F08110
:1001F000E02DC6010995892B79F7C501DF91CF91D3
:100200001F910F91FF90EF90DF90CF90BF90AF9034
:100210000895FC01538D448D252F30E0842F90E00C
:10022000821B930B541710F0CF96089501970895F1
:10023000FC01918D828D981761F0A28DAE0FBF2FBA
:10024000B11D5D968C91928D9F5F9F73928F90E010
:1002500008958FEF9FEF0895FC01918D828D98177F
:1002600031F0828DE80FF11D858D90E008958FEFBC
:100270009FEF0895FC01918D228D892F90E0805C85
:100280009F4F821B91098F739927089583E891E00E
:100290000E943A0121E0892B09F420E0822F089581
:1002A00080E090E0892B29F00E94460181110C9496
:1002B00000000895FC01A48DA80FB92FB11DA35A09
:1002C000BF4F2C91848D90E001968F739927848F76
:1002D000A689B7892C93A089B1898C918370806499
:1002E0008C93938D848D981306C00288F389E02D3A
:1002F00080818F7D80830895EF92FF920F931F93EB
:10030000CF93DF93EC0181E0888F9B8D8C8D9813C8
:100310001AC0E889F989808185FF15C09FB7F894D4
:10032000EE89FF896083E889F98980818370806420
:1003300080839FBF81E090E0DF91CF911F910F916B
:10034000FF90EF900895F62E0B8D10E00F5F1F4F7A
:100350000F731127E02E8C8D8E110CC00FB607FC89
:10036000FACFE889F989808185FFF5CFCE010E9417
:100370005A01F1CFEB8DEC0FFD2FF11DE35AFF4F2A
:10038000F0829FB7F8940B8FEA89FB8980818062A5
:10039000CFCFCF93DF93EC01888D8823B9F0AA8962
:1003A000BB89E889F9898C9185FD03C0808186FD30
:1003B0000DC00FB607FCF7CF8C9185FFF2CF80817F
:1003C00085FFEDCFCE010E945A01E9CFDF91CF9199
:1003D0000895CF93DF93FC0101900020E9F7319756
:1003E000AF01481B590BBC0183E891E00E94DC007F
:1003F000EC0142E050E062E171E083E891E00E94AC
:10040000DC008C0F9D1FDF91CF9108951F920F92FA
:100410000FB60F9211242F933F938F939F93AF9317
:10042000BF9380917B0190917C01A0917D01B0915F
:100430007E0130917A0123E0230F2D3758F5019684
:10044000A11DB11D20937A0180937B0190937C01C3
:10045000A0937D01B0937E0180917F0190918001F6
:10046000A0918101B09182010196A11DB11D8093DF
:100470007F0190938001A0938101B0938201BF918D
:10048000AF919F918F913F912F910F900FBE0F9041
:100490001F90189526E8230F0296A11DB11DD2CFFB
:1004A0001F920F920FB60F9211242F933F934F93E9
:1004B0005F936F937F938F939F93AF93BF93EF93CC
:1004C000FF9383E891E00E945A01FF91EF91BF9161
:1004D000AF919F918F917F916F915F914F913F91DC
:1004E0002F910F900FBE0F901F9018951F920F9293
:1004F0000FB60F9211242F938F939F93EF93FF9337
:10050000E0919301F09194018081E0919901F09143
:100510009A0182FD1BC0908180919C018F5F8F7337
:1005200020919D01821741F0E0919C01F0E0ED5790
:10053000FE4F958F80939C01FF91EF919F918F913A
:100540002F910F900FBE0F901F9018958081F4CFC0
:10055000789484B5826084BD84B5816084BD85B59E
:10056000826085BD85B5816085BD80916E008160AA
:1005700080936E0010928100809181008260809350
:100580008100809181008160809381008091800052
:100590008160809380008091B10084608093B1007D
:1005A0008091B00081608093B00080917A00846077
:1005B00080937A0080917A00826080937A008091A3
:1005C0007A00816080937A0080917A0080688093BD
:1005D0007A001092C100E0919301F091940182E0C1
:1005E0008083E0918F01F09190011082E091910160
:1005F000F09192018FEC808310929B01E091970122
:10060000F091980186E08083E0919501F091960148
:10061000808180618083E0919501F09196018081D5
:1006200088608083E0919501F091960180818068D7
:100630008083E0919501F091960180818F7D808388
:100640008EE00E947D0080E10E947D008FE00E948C
:100650007D0081E10E947D00F0E0CF2EF0E0DF2EF2
:100660008EE00E94A5008C0180E10E94A500EC01B3
:100670008FE00E94A5007C0181E10E94A500A801F5
:100680004C0F5D1F57FF02C04F5F5F4F5595479559
:100690009701280F391F37FF02C02F5F3F4F359555
:1006A00027950E0D1F1D17FF02C00F5F1F4F1595D9
:1006B0000795C80FD91FD7FD2196D595C795780105
:1006C000EC1AFD0AF7FE03C0F194E194F108CA01A7
:1006D000821B930B97FF03C0919581959109069713
:1006E0004CF085E191E02417350714F08DE291E09C
:1006F0000E94E90126E0E216F1044CF085E491E065
:10070000C017D10714F08FE591E00E94E9010E9423
:10071000B7002B013C0188EE882E83E0982EA12C97
:10072000B12C0E94B7006419750986099709683EC3
:10073000734081059105A8F381E0881A9108A1080A
:10074000B10828EE420E23E0521E611C711C811478
:100750009104A104B10429F7C114D10409F480CF94
:100760000E944601882309F47BCF0E94000078CFC5
:10077000E3E8F1E01382128288EE93E0A0E0B0E0BB
:1007800084839583A683B78384E091E091838083FB
:1007900085EC90E09587848784EC90E09787868746
:1007A00080EC90E0918B808B81EC90E0938B828B3E
:1007B00082EC90E0958B848B86EC90E0978B868B17
:1007C000118E128E138E148E0895EE0FFF1F05905A
:1007D000F491E02D0994F894FFCF000000007C0113
:1007E000DC000901C9013A0118012C010D0A004978
:1007F0006E63726561736520566572746963616CBE
:1008000020536572766F004465637265617365207D
:10081000566572746963616C20536572766F004926
:100820006E63726561736520486F72697A6F6E746A
:10083000616C20536572766F004465637265617305
:100840006520486F72697A6F6E74616C20536572AF
:04085000766F0000BF
:107E0000112484B714BE81FFF0D085E080938100F7
:107E100082E08093C00088E18093C10086E0809377
:107E2000C20080E18093C4008EE0C9D0259A86E02C
:107E300020E33CEF91E0309385002093840096BBD3
:107E4000B09BFECF1D9AA8958150A9F7CC24DD24C4
:107E500088248394B5E0AB2EA1E19A2EF3E0BF2EE7
:107E6000A2D0813461F49FD0082FAFD0023811F036
:107E7000013811F484E001C083E08DD089C08234E0
:107E800011F484E103C0853419F485E0A6D080C0E4
:107E9000853579F488D0E82EFF2485D0082F10E0AE
:107EA000102F00270E291F29000F111F8ED06801E7
:107EB0006FC0863521F484E090D080E0DECF843638
:107EC00009F040C070D06FD0082F6DD080E0C81688
:107ED00080E7D80618F4F601B7BEE895C0E0D1E017
:107EE00062D089930C17E1F7F0E0CF16F0E7DF06D8
:107EF00018F0F601B7BEE89568D007B600FCFDCFD4
:107F0000A601A0E0B1E02C9130E011968C91119780
:107F100090E0982F8827822B932B1296FA010C0160
:107F200087BEE89511244E5F5F4FF1E0A038BF0790
:107F300051F7F601A7BEE89507B600FCFDCF97BE46
:107F4000E89526C08437B1F42ED02DD0F82E2BD052
:107F50003CD0F601EF2C8F010F5F1F4F84911BD097
:107F6000EA94F801C1F70894C11CD11CFA94CF0C13
:107F7000D11C0EC0853739F428D08EE10CD085E9AC
:107F80000AD08FE07ACF813511F488E018D01DD067
:107F900080E101D065CF982F8091C00085FFFCCF94
:107FA0009093C60008958091C00087FFFCCF809118
:107FB000C00084FD01C0A8958091C6000895E0E648
:107FC000F0E098E1908380830895EDDF803219F02E
:107FD00088E0F5DFFFCF84E1DECF1F93182FE3DFCA
:107FE0001150E9F7F2DF1F91089580E0E8DFEE27F6
:047FF000FF270994CA
:027FFE00040479
:00000001FF
